{
  "contractName": "TellorCommunitySale",
  "abi": [
    {
      "constant": true,
      "inputs": [],
      "name": "tellorAddress",
      "outputs": [
        {
          "name": "",
          "type": "address"
        }
      ],
      "payable": false,
      "stateMutability": "view",
      "type": "function"
    },
    {
      "constant": true,
      "inputs": [],
      "name": "saleAmount",
      "outputs": [
        {
          "name": "",
          "type": "uint256"
        }
      ],
      "payable": false,
      "stateMutability": "view",
      "type": "function"
    },
    {
      "constant": true,
      "inputs": [],
      "name": "owner",
      "outputs": [
        {
          "name": "",
          "type": "address"
        }
      ],
      "payable": false,
      "stateMutability": "view",
      "type": "function"
    },
    {
      "constant": true,
      "inputs": [],
      "name": "tribPrice",
      "outputs": [
        {
          "name": "",
          "type": "uint256"
        }
      ],
      "payable": false,
      "stateMutability": "view",
      "type": "function"
    },
    {
      "constant": true,
      "inputs": [],
      "name": "endDate",
      "outputs": [
        {
          "name": "",
          "type": "uint256"
        }
      ],
      "payable": false,
      "stateMutability": "view",
      "type": "function"
    },
    {
      "inputs": [
        {
          "name": "_Tellor",
          "type": "address"
        }
      ],
      "payable": false,
      "stateMutability": "nonpayable",
      "type": "constructor"
    },
    {
      "payable": true,
      "stateMutability": "payable",
      "type": "fallback"
    },
    {
      "anonymous": false,
      "inputs": [
        {
          "indexed": false,
          "name": "_price",
          "type": "uint256"
        }
      ],
      "name": "NewPrice",
      "type": "event"
    },
    {
      "anonymous": false,
      "inputs": [
        {
          "indexed": false,
          "name": "_newAddress",
          "type": "address"
        },
        {
          "indexed": false,
          "name": "_amount",
          "type": "uint256"
        }
      ],
      "name": "NewAddress",
      "type": "event"
    },
    {
      "anonymous": false,
      "inputs": [
        {
          "indexed": false,
          "name": "_buyer",
          "type": "address"
        },
        {
          "indexed": false,
          "name": "_amount",
          "type": "uint256"
        }
      ],
      "name": "NewSale",
      "type": "event"
    },
    {
      "constant": false,
      "inputs": [
        {
          "name": "_price",
          "type": "uint256"
        }
      ],
      "name": "setPrice",
      "outputs": [],
      "payable": false,
      "stateMutability": "nonpayable",
      "type": "function"
    },
    {
      "constant": false,
      "inputs": [
        {
          "name": "_address",
          "type": "address"
        },
        {
          "name": "_amount",
          "type": "uint256"
        }
      ],
      "name": "enterAddress",
      "outputs": [],
      "payable": false,
      "stateMutability": "nonpayable",
      "type": "function"
    },
    {
      "constant": false,
      "inputs": [],
      "name": "withdrawTokens",
      "outputs": [],
      "payable": false,
      "stateMutability": "nonpayable",
      "type": "function"
    },
    {
      "constant": false,
      "inputs": [],
      "name": "withdrawETH",
      "outputs": [],
      "payable": false,
      "stateMutability": "nonpayable",
      "type": "function"
    },
    {
      "constant": true,
      "inputs": [
        {
          "name": "_address",
          "type": "address"
        }
      ],
      "name": "getSaleByAddress",
      "outputs": [
        {
          "name": "",
          "type": "uint256"
        }
      ],
      "payable": false,
      "stateMutability": "view",
      "type": "function"
    },
    {
      "constant": true,
      "inputs": [
        {
          "name": "_address",
          "type": "address"
        }
      ],
      "name": "didWithdraw",
      "outputs": [
        {
          "name": "",
          "type": "bool"
        }
      ],
      "payable": false,
      "stateMutability": "view",
      "type": "function"
    },
    {
      "constant": true,
      "inputs": [],
      "name": "checkThisAddressTokens",
      "outputs": [
        {
          "name": "",
          "type": "uint256"
        }
      ],
      "payable": false,
      "stateMutability": "view",
      "type": "function"
    }
  ],
  "bytecode": "0x608060405234801561001057600080fd5b506040516020806110838339810180604052602081101561003057600080fd5b810190808051906020019092919050505033600460006101000a81548173ffffffffffffffffffffffffffffffffffffffff021916908373ffffffffffffffffffffffffffffffffffffffff16021790555062093a80420160018190555080600360006101000a81548173ffffffffffffffffffffffffffffffffffffffff021916908373ffffffffffffffffffffffffffffffffffffffff16021790555080600560006101000a81548173ffffffffffffffffffffffffffffffffffffffff021916908373ffffffffffffffffffffffffffffffffffffffff16021790555050610f63806101206000396000f3fe6080604052600436106100a75760003560e01c80638da5cb5b116100645780638da5cb5b1461056457806391b7f5ed146105bb578063be09cbbd146105f6578063c15ae9381461065b578063c24a0f8b14610686578063e086e5ec146106b1576100a7565b80631707490f146103dc5780633347c8fe1461044557806334149cf61461049c5780634f005ad0146104c75780638aae995a146105225780638d8f2adb1461054d575b600760003373ffffffffffffffffffffffffffffffffffffffff1673ffffffffffffffffffffffffffffffffffffffff16815260200190815260200160002060009054906101000a900460ff16156100fe57600080fd5b6000600660003373ffffffffffffffffffffffffffffffffffffffff1673ffffffffffffffffffffffffffffffffffffffff168152602001908152602001600020541161014a57600080fd5b61019e600660003373ffffffffffffffffffffffffffffffffffffffff1673ffffffffffffffffffffffffffffffffffffffff168152602001908152602001600020546000546106c890919063ffffffff16565b3410156101aa57600080fd5b6001600760003373ffffffffffffffffffffffffffffffffffffffff1673ffffffffffffffffffffffffffffffffffffffff16815260200190815260200160002060006101000a81548160ff021916908315150217905550600560009054906101000a900473ffffffffffffffffffffffffffffffffffffffff1673ffffffffffffffffffffffffffffffffffffffff1663a9059cbb33670de0b6b3a7640000600660003373ffffffffffffffffffffffffffffffffffffffff1673ffffffffffffffffffffffffffffffffffffffff16815260200190815260200160002054026040518363ffffffff1660e01b8152600401808373ffffffffffffffffffffffffffffffffffffffff1673ffffffffffffffffffffffffffffffffffffffff16815260200182815260200192505050602060405180830381600087803b1580156102f457600080fd5b505af1158015610308573d6000803e3d6000fd5b505050506040513d602081101561031e57600080fd5b8101908080519060200190929190505050507f1879c2da3209ffa2a894fe5982d4efad2e3748112706ec81de514fb9e9e6677f33600660003373ffffffffffffffffffffffffffffffffffffffff1673ffffffffffffffffffffffffffffffffffffffff16815260200190815260200160002054604051808373ffffffffffffffffffffffffffffffffffffffff1673ffffffffffffffffffffffffffffffffffffffff1681526020018281526020019250505060405180910390a1005b3480156103e857600080fd5b5061042b600480360360208110156103ff57600080fd5b81019080803573ffffffffffffffffffffffffffffffffffffffff16906020019092919050505061074e565b604051808215151515815260200191505060405180910390f35b34801561045157600080fd5b5061045a6107a4565b604051808273ffffffffffffffffffffffffffffffffffffffff1673ffffffffffffffffffffffffffffffffffffffff16815260200191505060405180910390f35b3480156104a857600080fd5b506104b16107ca565b6040518082815260200191505060405180910390f35b3480156104d357600080fd5b50610520600480360360408110156104ea57600080fd5b81019080803573ffffffffffffffffffffffffffffffffffffffff169060200190929190803590602001909291905050506108ab565b005b34801561052e57600080fd5b50610537610a4c565b6040518082815260200191505060405180910390f35b34801561055957600080fd5b50610562610a52565b005b34801561057057600080fd5b50610579610c9c565b604051808273ffffffffffffffffffffffffffffffffffffffff1673ffffffffffffffffffffffffffffffffffffffff16815260200191505060405180910390f35b3480156105c757600080fd5b506105f4600480360360208110156105de57600080fd5b8101908080359060200190929190505050610cc2565b005b34801561060257600080fd5b506106456004803603602081101561061957600080fd5b81019080803573ffffffffffffffffffffffffffffffffffffffff169060200190929190505050610d5d565b6040518082815260200191505060405180910390f35b34801561066757600080fd5b50610670610da6565b6040518082815260200191505060405180910390f35b34801561069257600080fd5b5061069b610dac565b6040518082815260200191505060405180910390f35b3480156106bd57600080fd5b506106c6610db2565b005b6000808314156106db5760009050610748565b60008284029050828482816106ec57fe5b0414610743576040517f08c379a0000000000000000000000000000000000000000000000000000000008152600401808060200182810382526021815260200180610f176021913960400191505060405180910390fd5b809150505b92915050565b6000600760008373ffffffffffffffffffffffffffffffffffffffff1673ffffffffffffffffffffffffffffffffffffffff16815260200190815260200160002060009054906101000a900460ff169050919050565b600360009054906101000a900473ffffffffffffffffffffffffffffffffffffffff1681565b6000600560009054906101000a900473ffffffffffffffffffffffffffffffffffffffff1673ffffffffffffffffffffffffffffffffffffffff166370a08231306040518263ffffffff1660e01b8152600401808273ffffffffffffffffffffffffffffffffffffffff1673ffffffffffffffffffffffffffffffffffffffff16815260200191505060206040518083038186803b15801561086b57600080fd5b505afa15801561087f573d6000803e3d6000fd5b505050506040513d602081101561089557600080fd5b8101908080519060200190929190505050905090565b600460009054906101000a900473ffffffffffffffffffffffffffffffffffffffff1673ffffffffffffffffffffffffffffffffffffffff163373ffffffffffffffffffffffffffffffffffffffff161461090557600080fd5b60001515600760008473ffffffffffffffffffffffffffffffffffffffff1673ffffffffffffffffffffffffffffffffffffffff16815260200190815260200160002060009054906101000a900460ff1615151461096257600080fd5b61097781600254610e8e90919063ffffffff16565b61097f6107ca565b1161098957600080fd5b8060026000828254019250508190555080600660008473ffffffffffffffffffffffffffffffffffffffff1673ffffffffffffffffffffffffffffffffffffffff168152602001908152602001600020819055507fc361e5a32aaa6192f4cad2dfc55cf43cdc256fafbffac1c3931456d5311cb8908282604051808373ffffffffffffffffffffffffffffffffffffffff1673ffffffffffffffffffffffffffffffffffffffff1681526020018281526020019250505060405180910390a15050565b60025481565b600460009054906101000a900473ffffffffffffffffffffffffffffffffffffffff1673ffffffffffffffffffffffffffffffffffffffff163373ffffffffffffffffffffffffffffffffffffffff1614610aac57600080fd5b6001544211610aba57600080fd5b600560009054906101000a900473ffffffffffffffffffffffffffffffffffffffff1673ffffffffffffffffffffffffffffffffffffffff1663a9059cbb600460009054906101000a900473ffffffffffffffffffffffffffffffffffffffff16600560009054906101000a900473ffffffffffffffffffffffffffffffffffffffff1673ffffffffffffffffffffffffffffffffffffffff166370a08231306040518263ffffffff1660e01b8152600401808273ffffffffffffffffffffffffffffffffffffffff1673ffffffffffffffffffffffffffffffffffffffff16815260200191505060206040518083038186803b158015610bba57600080fd5b505afa158015610bce573d6000803e3d6000fd5b505050506040513d6020811015610be457600080fd5b81019080805190602001909291905050506040518363ffffffff1660e01b8152600401808373ffffffffffffffffffffffffffffffffffffffff1673ffffffffffffffffffffffffffffffffffffffff16815260200182815260200192505050602060405180830381600087803b158015610c5e57600080fd5b505af1158015610c72573d6000803e3d6000fd5b505050506040513d6020811015610c8857600080fd5b810190808051906020019092919050505050565b600460009054906101000a900473ffffffffffffffffffffffffffffffffffffffff1681565b600460009054906101000a900473ffffffffffffffffffffffffffffffffffffffff1673ffffffffffffffffffffffffffffffffffffffff163373ffffffffffffffffffffffffffffffffffffffff1614610d1c57600080fd5b806000819055507f270b316b51ab2cf3a3bb8ca4d22e76a327d05e762fcaa8bd6afaf8cfde9270b7816040518082815260200191505060405180910390a150565b6000600660008373ffffffffffffffffffffffffffffffffffffffff1673ffffffffffffffffffffffffffffffffffffffff168152602001908152602001600020549050919050565b60005481565b60015481565b600460009054906101000a900473ffffffffffffffffffffffffffffffffffffffff1673ffffffffffffffffffffffffffffffffffffffff163373ffffffffffffffffffffffffffffffffffffffff1614610e0c57600080fd5b600460009054906101000a900473ffffffffffffffffffffffffffffffffffffffff1673ffffffffffffffffffffffffffffffffffffffff166108fc3073ffffffffffffffffffffffffffffffffffffffff16319081150290604051600060405180830381858888f19350505050158015610e8b573d6000803e3d6000fd5b50565b600080828401905083811015610f0c576040517f08c379a000000000000000000000000000000000000000000000000000000000815260040180806020018281038252601b8152602001807f536166654d6174683a206164646974696f6e206f766572666c6f77000000000081525060200191505060405180910390fd5b809150509291505056fe536166654d6174683a206d756c7469706c69636174696f6e206f766572666c6f77a165627a7a723058209e9e356fcbf3192d12b16b2b96af8a18f33e689118e0d0f4bd86fc4b3fd418210029",
  "source": "pragma solidity ^0.5.0;\r\n\r\nimport \"./TokenInterface.sol\";\r\nimport \"./SafeMath.sol\";\r\n\r\n/**\r\n* @title Tellor Community Sale\r\n* @dev This contract allows for the sale of Tributes to early miners\r\n*/\r\n\r\ncontract TellorCommunitySale{\r\n    using SafeMath for uint256;\r\n\r\n    /*Variables*/\r\n    uint public tribPrice;\r\n    uint public endDate;\r\n    uint public saleAmount;\r\n    address public tellorAddress;\r\n    address payable public owner;\r\n    TokenInterface tellor;\r\n\r\n    mapping(address => uint) saleByAddress;\r\n    mapping(address => bool) withdrawn;\r\n\r\n    /*Events*/\r\n    event NewPrice(uint _price);\r\n    event NewAddress(address _newAddress, uint _amount);\r\n    event NewSale(address _buyer,uint _amount);\r\n\r\n    /*Constructor*/\r\n    /*\r\n    * @dev This sets the sale period to 7 days, and the TellorMaster address for the interface\r\n    * @param _Tellor is the TellorMaster address\r\n    */\r\n    constructor(address _Tellor) public {\r\n        owner = msg.sender;\r\n        endDate = now + 7 days;\r\n        tellorAddress = _Tellor;\r\n        tellor = TokenInterface(_Tellor);\r\n    }\r\n\r\n    /**\r\n    * @dev Allows the contract owner(Tellor) to set the price per Tribute\r\n    * @param _price per Tribute\r\n    */\r\n    function setPrice(uint _price) external {\r\n        require(msg.sender == owner);\r\n        tribPrice = _price;\r\n        emit NewPrice(_price);\r\n    }\r\n\r\n\r\n    /**\r\n    * @dev Allows the contract owner(Tellor) to add approved addresses for the sale\r\n    * It only allows for each address to be approved once and it checks that this contract contains \r\n    * enough Tellor Tributes available before authorizing\r\n    * @param _address of approved party\r\n    * @param _amount of tokens authorized for the party to buy\r\n    */\r\n    function enterAddress(address _address, uint _amount) external {\r\n        require(msg.sender == owner);\r\n        require(withdrawn[_address] == false);\r\n        require(checkThisAddressTokens() > saleAmount.add(_amount));\r\n        saleAmount += _amount;\r\n        saleByAddress[_address] = _amount;\r\n        emit NewAddress(_address,_amount);\r\n    }\r\n\r\n\r\n    /**\r\n    * @dev Allows the contract owner(Tellor) to withdraw any Tributes left on this contract\r\n    * after the sale's end date\r\n    */\r\n    function withdrawTokens() external{\r\n        require(msg.sender == owner);\r\n        require(now > endDate);\r\n        tellor.transfer(owner,tellor.balanceOf(address(this)));\r\n    }\r\n\r\n\r\n    /**\r\n    * @dev Allows the contract owner(Tellor) to withdraw ETH from this contract\r\n    */\r\n    function withdrawETH() external{\r\n        require(msg.sender == owner);\r\n        address(owner).transfer(address(this).balance);\r\n    }\r\n\r\n    /**\r\n    * @dev Allows the approved addresses to pay ETH and withdraw the authorized number of Tributes\r\n    */\r\n    function () external payable{\r\n        require(!withdrawn[msg.sender]);\r\n        require (saleByAddress[msg.sender] > 0);\r\n        require(msg.value >= tribPrice.mul(saleByAddress[msg.sender]));//are decimals an issue?\r\n        withdrawn[msg.sender] = true;\r\n        tellor.transfer(msg.sender,saleByAddress[msg.sender]*1e18); \r\n        emit NewSale(msg.sender,saleByAddress[msg.sender]);\r\n    }    \r\n\r\n\r\n    /*Getters*/\r\n\r\n    /**\r\n    * @dev Gets the amount of Tributes authorized for the specified address\r\n    * @param _address of approved party\r\n    */\r\n    function getSaleByAddress(address _address) external view returns(uint){\r\n        return saleByAddress[_address];\r\n    }\r\n\r\n\r\n    /**\r\n    * @dev Checks if the approved party withdrew the amount of Tributes authorized\r\n    * @param _address of approved party\r\n    */\r\n    function didWithdraw(address _address) external view returns(bool){\r\n        return withdrawn[_address];\r\n    }\r\n\r\n\r\n    /**\r\n    * @dev Checks if this contract has enough Tributes before approving more addresses \r\n    */\r\n    function checkThisAddressTokens() public view returns(uint){\r\n        return tellor.balanceOf(address(this));\r\n    }\r\n\r\n}\r\n",
  "sourcePath": "C:/users/lloya/documents/dda/1tellor/tellor/saleContract/contracts/TellorCommunitySale.sol",
  "compiler": {
    "name": "solc",
    "version": "0.5.8+commit.23d335f2.Emscripten.clang"
  },
  "schemaVersion": "3.0.11",
  "updatedAt": "2019-08-29T19:13:58.843Z",
  "devdoc": {
    "details": "This contract allows for the sale of Tributes to early miners\r",
    "methods": {
      "checkThisAddressTokens()": {
        "details": "Checks if this contract has enough Tributes before approving more addresses \r"
      },
      "didWithdraw(address)": {
        "details": "Checks if the approved party withdrew the amount of Tributes authorized\r",
        "params": {
          "_address": "of approved party\r"
        }
      },
      "enterAddress(address,uint256)": {
        "details": "Allows the contract owner(Tellor) to add approved addresses for the sale\r It only allows for each address to be approved once and it checks that this contract contains \r enough Tellor Tributes available before authorizing\r",
        "params": {
          "_address": "of approved party\r",
          "_amount": "of tokens authorized for the party to buy\r"
        }
      },
      "getSaleByAddress(address)": {
        "details": "Gets the amount of Tributes authorized for the specified address\r",
        "params": {
          "_address": "of approved party\r"
        }
      },
      "setPrice(uint256)": {
        "details": "Allows the contract owner(Tellor) to set the price per Tribute\r",
        "params": {
          "_price": "per Tribute\r"
        }
      },
      "withdrawETH()": {
        "details": "Allows the contract owner(Tellor) to withdraw ETH from this contract\r"
      },
      "withdrawTokens()": {
        "details": "Allows the contract owner(Tellor) to withdraw any Tributes left on this contract\r after the sale's end date\r"
      }
    },
    "title": "Tellor Community Sale\r"
  },
  "userdoc": {
    "methods": {}
  }
}