{
  "contractName": "TellorCommunitySale",
  "abi": [
    {
      "constant": true,
      "inputs": [],
      "name": "saleAmount",
      "outputs": [
        {
          "name": "",
          "type": "uint256"
        }
      ],
      "payable": false,
      "stateMutability": "view",
      "type": "function"
    },
    {
      "constant": true,
      "inputs": [],
      "name": "owner",
      "outputs": [
        {
          "name": "",
          "type": "address"
        }
      ],
      "payable": false,
      "stateMutability": "view",
      "type": "function"
    },
    {
      "constant": true,
      "inputs": [],
      "name": "tribPrice",
      "outputs": [
        {
          "name": "",
          "type": "uint256"
        }
      ],
      "payable": false,
      "stateMutability": "view",
      "type": "function"
    },
    {
      "constant": true,
      "inputs": [],
      "name": "endDate",
      "outputs": [
        {
          "name": "",
          "type": "uint256"
        }
      ],
      "payable": false,
      "stateMutability": "view",
      "type": "function"
    },
    {
      "inputs": [
        {
          "name": "_Tellor",
          "type": "address"
        }
      ],
      "payable": false,
      "stateMutability": "nonpayable",
      "type": "constructor"
    },
    {
      "payable": true,
      "stateMutability": "payable",
      "type": "fallback"
    },
    {
      "anonymous": false,
      "inputs": [
        {
          "indexed": false,
          "name": "_price",
          "type": "uint256"
        }
      ],
      "name": "NewPrice",
      "type": "event"
    },
    {
      "anonymous": false,
      "inputs": [
        {
          "indexed": false,
          "name": "_newAddress",
          "type": "address"
        },
        {
          "indexed": false,
          "name": "_amount",
          "type": "uint256"
        }
      ],
      "name": "NewAddress",
      "type": "event"
    },
    {
      "anonymous": false,
      "inputs": [
        {
          "indexed": false,
          "name": "_buyer",
          "type": "address"
        },
        {
          "indexed": false,
          "name": "_amount",
          "type": "uint256"
        }
      ],
      "name": "NewSale",
      "type": "event"
    },
    {
      "constant": false,
      "inputs": [
        {
          "name": "_price",
          "type": "uint256"
        }
      ],
      "name": "setPrice",
      "outputs": [],
      "payable": false,
      "stateMutability": "nonpayable",
      "type": "function"
    },
    {
      "constant": false,
      "inputs": [
        {
          "name": "_address",
          "type": "address"
        },
        {
          "name": "_amount",
          "type": "uint256"
        }
      ],
      "name": "enterAddress",
      "outputs": [],
      "payable": false,
      "stateMutability": "nonpayable",
      "type": "function"
    },
    {
      "constant": false,
      "inputs": [],
      "name": "withdrawTokens",
      "outputs": [],
      "payable": false,
      "stateMutability": "nonpayable",
      "type": "function"
    },
    {
      "constant": false,
      "inputs": [],
      "name": "withdrawETH",
      "outputs": [],
      "payable": false,
      "stateMutability": "nonpayable",
      "type": "function"
    },
    {
      "constant": true,
      "inputs": [
        {
          "name": "_addr",
          "type": "address"
        }
      ],
      "name": "getSaleByAddress",
      "outputs": [
        {
          "name": "",
          "type": "uint256"
        }
      ],
      "payable": false,
      "stateMutability": "view",
      "type": "function"
    },
    {
      "constant": true,
      "inputs": [
        {
          "name": "_addr",
          "type": "address"
        }
      ],
      "name": "didWithdraw",
      "outputs": [
        {
          "name": "",
          "type": "bool"
        }
      ],
      "payable": false,
      "stateMutability": "view",
      "type": "function"
    },
    {
      "constant": true,
      "inputs": [],
      "name": "checkThisAddressTokens",
      "outputs": [
        {
          "name": "",
          "type": "uint256"
        }
      ],
      "payable": false,
      "stateMutability": "view",
      "type": "function"
    }
  ],
  "bytecode": "0x608060405234801561001057600080fd5b50604051602080610f5e8339810180604052602081101561003057600080fd5b8101908080519060200190929190505050336000806101000a81548173ffffffffffffffffffffffffffffffffffffffff021916908373ffffffffffffffffffffffffffffffffffffffff16021790555062093a80420160028190555080600460006101000a81548173ffffffffffffffffffffffffffffffffffffffff021916908373ffffffffffffffffffffffffffffffffffffffff16021790555050610e80806100de6000396000f3fe60806040526004361061009c5760003560e01c80638da5cb5b116100645780638da5cb5b146104ac57806391b7f5ed14610503578063be09cbbd1461053e578063c15ae938146105a3578063c24a0f8b146105ce578063e086e5ec146105f95761009c565b80631707490f1461037b57806334149cf6146103e45780634f005ad01461040f5780638aae995a1461046a5780638d8f2adb14610495575b600660003373ffffffffffffffffffffffffffffffffffffffff1673ffffffffffffffffffffffffffffffffffffffff16815260200190815260200160002060009054906101000a900460ff16156100f357600080fd5b610147600560003373ffffffffffffffffffffffffffffffffffffffff1673ffffffffffffffffffffffffffffffffffffffff1681526020019081526020016000205460015461061090919063ffffffff16565b34101561015357600080fd5b600460009054906101000a900473ffffffffffffffffffffffffffffffffffffffff1673ffffffffffffffffffffffffffffffffffffffff1663a9059cbb33600560003373ffffffffffffffffffffffffffffffffffffffff1673ffffffffffffffffffffffffffffffffffffffff168152602001908152602001600020546040518363ffffffff1660e01b8152600401808373ffffffffffffffffffffffffffffffffffffffff1673ffffffffffffffffffffffffffffffffffffffff16815260200182815260200192505050602060405180830381600087803b15801561023b57600080fd5b505af115801561024f573d6000803e3d6000fd5b505050506040513d602081101561026557600080fd5b8101908080519060200190929190505050506001600660003373ffffffffffffffffffffffffffffffffffffffff1673ffffffffffffffffffffffffffffffffffffffff16815260200190815260200160002060006101000a81548160ff0219169083151502179055507f1879c2da3209ffa2a894fe5982d4efad2e3748112706ec81de514fb9e9e6677f33600560003373ffffffffffffffffffffffffffffffffffffffff1673ffffffffffffffffffffffffffffffffffffffff16815260200190815260200160002054604051808373ffffffffffffffffffffffffffffffffffffffff1673ffffffffffffffffffffffffffffffffffffffff1681526020018281526020019250505060405180910390a1005b34801561038757600080fd5b506103ca6004803603602081101561039e57600080fd5b81019080803573ffffffffffffffffffffffffffffffffffffffff169060200190929190505050610696565b604051808215151515815260200191505060405180910390f35b3480156103f057600080fd5b506103f96106ec565b6040518082815260200191505060405180910390f35b34801561041b57600080fd5b506104686004803603604081101561043257600080fd5b81019080803573ffffffffffffffffffffffffffffffffffffffff169060200190929190803590602001909291905050506107cd565b005b34801561047657600080fd5b5061047f61096a565b6040518082815260200191505060405180910390f35b3480156104a157600080fd5b506104aa610970565b005b3480156104b857600080fd5b506104c1610bb5565b604051808273ffffffffffffffffffffffffffffffffffffffff1673ffffffffffffffffffffffffffffffffffffffff16815260200191505060405180910390f35b34801561050f57600080fd5b5061053c6004803603602081101561052657600080fd5b8101908080359060200190929190505050610bda565b005b34801561054a57600080fd5b5061058d6004803603602081101561056157600080fd5b81019080803573ffffffffffffffffffffffffffffffffffffffff169060200190929190505050610c71565b6040518082815260200191505060405180910390f35b3480156105af57600080fd5b506105b8610cba565b6040518082815260200191505060405180910390f35b3480156105da57600080fd5b506105e3610cc0565b6040518082815260200191505060405180910390f35b34801561060557600080fd5b5061060e610cc6565b005b6000808314156106235760009050610690565b600082840290508284828161063457fe5b041461068b576040517f08c379a0000000000000000000000000000000000000000000000000000000008152600401808060200182810382526021815260200180610e346021913960400191505060405180910390fd5b809150505b92915050565b6000600660008373ffffffffffffffffffffffffffffffffffffffff1673ffffffffffffffffffffffffffffffffffffffff16815260200190815260200160002060009054906101000a900460ff169050919050565b6000600460009054906101000a900473ffffffffffffffffffffffffffffffffffffffff1673ffffffffffffffffffffffffffffffffffffffff166370a08231306040518263ffffffff1660e01b8152600401808273ffffffffffffffffffffffffffffffffffffffff1673ffffffffffffffffffffffffffffffffffffffff16815260200191505060206040518083038186803b15801561078d57600080fd5b505afa1580156107a1573d6000803e3d6000fd5b505050506040513d60208110156107b757600080fd5b8101908080519060200190929190505050905090565b6000809054906101000a900473ffffffffffffffffffffffffffffffffffffffff1673ffffffffffffffffffffffffffffffffffffffff163373ffffffffffffffffffffffffffffffffffffffff1614156109665760001515600660008473ffffffffffffffffffffffffffffffffffffffff1673ffffffffffffffffffffffffffffffffffffffff16815260200190815260200160002060009054906101000a900460ff1615151461087f57600080fd5b61089481600354610dab90919063ffffffff16565b61089c6106ec565b116108a657600080fd5b8060036000828254019250508190555080600560008473ffffffffffffffffffffffffffffffffffffffff1673ffffffffffffffffffffffffffffffffffffffff168152602001908152602001600020819055507fc361e5a32aaa6192f4cad2dfc55cf43cdc256fafbffac1c3931456d5311cb8908282604051808373ffffffffffffffffffffffffffffffffffffffff1673ffffffffffffffffffffffffffffffffffffffff1681526020018281526020019250505060405180910390a15b5050565b60035481565b6000809054906101000a900473ffffffffffffffffffffffffffffffffffffffff1673ffffffffffffffffffffffffffffffffffffffff163373ffffffffffffffffffffffffffffffffffffffff161415610bb35760025442116109d357600080fd5b600460009054906101000a900473ffffffffffffffffffffffffffffffffffffffff1673ffffffffffffffffffffffffffffffffffffffff1663a9059cbb6000809054906101000a900473ffffffffffffffffffffffffffffffffffffffff16600460009054906101000a900473ffffffffffffffffffffffffffffffffffffffff1673ffffffffffffffffffffffffffffffffffffffff166370a08231306040518263ffffffff1660e01b8152600401808273ffffffffffffffffffffffffffffffffffffffff1673ffffffffffffffffffffffffffffffffffffffff16815260200191505060206040518083038186803b158015610ad257600080fd5b505afa158015610ae6573d6000803e3d6000fd5b505050506040513d6020811015610afc57600080fd5b81019080805190602001909291905050506040518363ffffffff1660e01b8152600401808373ffffffffffffffffffffffffffffffffffffffff1673ffffffffffffffffffffffffffffffffffffffff16815260200182815260200192505050602060405180830381600087803b158015610b7657600080fd5b505af1158015610b8a573d6000803e3d6000fd5b505050506040513d6020811015610ba057600080fd5b8101908080519060200190929190505050505b565b6000809054906101000a900473ffffffffffffffffffffffffffffffffffffffff1681565b6000809054906101000a900473ffffffffffffffffffffffffffffffffffffffff1673ffffffffffffffffffffffffffffffffffffffff163373ffffffffffffffffffffffffffffffffffffffff161415610c6e57806001819055507f270b316b51ab2cf3a3bb8ca4d22e76a327d05e762fcaa8bd6afaf8cfde9270b7816040518082815260200191505060405180910390a15b50565b6000600560008373ffffffffffffffffffffffffffffffffffffffff1673ffffffffffffffffffffffffffffffffffffffff168152602001908152602001600020549050919050565b60015481565b60025481565b6000809054906101000a900473ffffffffffffffffffffffffffffffffffffffff1673ffffffffffffffffffffffffffffffffffffffff163373ffffffffffffffffffffffffffffffffffffffff161415610da9576002544211610d2957600080fd5b6000809054906101000a900473ffffffffffffffffffffffffffffffffffffffff1673ffffffffffffffffffffffffffffffffffffffff166108fc3073ffffffffffffffffffffffffffffffffffffffff16319081150290604051600060405180830381858888f19350505050158015610da7573d6000803e3d6000fd5b505b565b600080828401905083811015610e29576040517f08c379a000000000000000000000000000000000000000000000000000000000815260040180806020018281038252601b8152602001807f536166654d6174683a206164646974696f6e206f766572666c6f77000000000081525060200191505060405180910390fd5b809150509291505056fe536166654d6174683a206d756c7469706c69636174696f6e206f766572666c6f77a165627a7a7230582086daa034385bab57b36b614fc686e463e653570cd5fc4da076b0719c0d118d3d0029",
  "source": "pragma solidity ^0.5.0;\r\n\r\n//add SafeMath?\r\nimport \"./TokenInterface.sol\";\r\nimport \"./SafeMath.sol\";\r\n\r\ncontract TellorCommunitySale{\r\n  using SafeMath for uint256;\r\n\r\n  address payable public owner;\r\n  uint public tribPrice;\r\n  uint public endDate;\r\n  uint public saleAmount;\r\n  TokenInterface tellor;\r\n\r\n  mapping(address => uint) saleByAddress;\r\n  mapping(address => bool) withdrawn;\r\n\r\n\r\n  event NewPrice(uint _price);\r\n  event NewAddress(address _newAddress, uint _amount);\r\n  event NewSale(address _buyer,uint _amount);\r\n\r\n  constructor(address _Tellor) public {\r\n    owner = msg.sender;\r\n    endDate = now + 7 days;\r\n    tellor = TokenInterface(_Tellor);\r\n  }\r\n\r\n  modifier restricted() {\r\n    if (msg.sender == owner) _;\r\n  }\r\n\r\n  function setPrice(uint _price) external restricted {\r\n    tribPrice = _price;\r\n    emit NewPrice(_price);\r\n  }\r\n\r\n  function enterAddress(address _address, uint _amount) external restricted{\r\n    require(withdrawn[_address] == false);\r\n    require(checkThisAddressTokens() > saleAmount.add(_amount));\r\n    saleAmount += _amount;\r\n    saleByAddress[_address] = _amount;\r\n    emit NewAddress(_address,_amount);\r\n  }\r\n\r\n  function withdrawTokens() external restricted{\r\n    require(now > endDate);\r\n    tellor.transfer(owner,tellor.balanceOf(address(this)));\r\n  }\r\n\r\n  function withdrawETH() external restricted{\r\n   require(now > endDate);\r\n   address(owner).transfer(address(this).balance);\r\n  }\r\n\r\n\r\n  function () external payable{\r\n    require(!withdrawn[msg.sender]);\r\n    require(msg.value >= tribPrice.mul(saleByAddress[msg.sender]));//are decimals an issue?\r\n    tellor.transfer(msg.sender,saleByAddress[msg.sender]);\r\n    withdrawn[msg.sender] = true;\r\n    emit NewSale(msg.sender,saleByAddress[msg.sender]);\r\n  }    \r\n\r\n\r\n  //Getters\r\n  function getSaleByAddress(address _addr) external view returns(uint){\r\n    return saleByAddress[_addr];\r\n  }\r\n\r\n  function didWithdraw(address _addr) external view returns(bool){\r\n    return withdrawn[_addr];\r\n  }\r\n\r\n  function checkThisAddressTokens() public view returns(uint){\r\n    return tellor.balanceOf(address(this));\r\n  }\r\n\r\n}\r\n",
  "sourcePath": "C:/company/code/saleContract/contracts/TellorCommunitySale.sol",
  "compiler": {
    "name": "solc",
    "version": "0.5.8+commit.23d335f2.Emscripten.clang"
  },
  "schemaVersion": "3.0.13",
  "updatedAt": "2019-08-27T19:50:56.764Z",
  "devdoc": {
    "methods": {}
  },
  "userdoc": {
    "methods": {}
  }
}